:020000000A28CC
:10000800FE000308C0000A08C100642A052A00305F
:100018008A000408840A8207003409340A340B343D
:100028000C34073407340734013402345D228B174B
:10003800031C2028F501F50A2030FF20EB01EC0114
:10004800ED01EE016C08C3006B08C2006E08C50024
:100058006D08C4002C224308EA004208E9006B0836
:10006800F5006D08F600F701F8010830F900750889
:10007800F60C0318F807F80CF70CF90B3C2878086D
:10008800F2007708F1006A087206031D4D28690816
:100098007106031D4E28ED0A0319EE0A01306E029F
:1000A800003003196D02031C2628EB0A0319EC0A19
:1000B80001306C02003003196B02031C2428E30191
:1000C800E401E501E60100306602031D75280130F0
:1000D8006502031D752800306402031D7528003071
:1000E80063020318FE28EF01EF0AF001EF01EF0A9F
:1000F800F0016F08C2007008C300C401C50166089A
:10010800C9006508C8006408C7006308C6007F21E5
:100118004308E8004208E7006F08C2007008C300FF
:10012800C401C5016608C9006508C8006408C7009D
:100138006308C600C7214208F3006408F600630894
:10014800F5006F08F700A920C928F801F901AC20CB
:100158000830FA000310F60DF80DF90DF60A7708C5
:10016800F8020318C0280130F9020318C028F60362
:100178007708F8070318F90AFA0BAE287608FB0087
:100188007508F6007B08F50008007608831203134B
:10019800B1007508B0007808F4006708DF00680847
:1001A800E000E101E20133086206031DE528320898
:1001B8006106031DE52831086006031DE52830089F
:1001C8005F06031DEB28730874060319EC28EB2857
:1001D800EF0A0319F00A01307002003003196F02A8
:1001E800031C7D28E30A0319E40A0319E50A031925
:1001F800E60A6728FE28DA00DE015A0884000008AB
:10020800C4006D21DA0ADA0ADE0A08305E02031C2D
:100218000129DE015E0ADD0008305D02031843296A
:1002280003105E0D7A21840A0008C50003105D0DD5
:100238004A3E84000008C600840A0008C700450832
:100248004702031D292944084602031841290310BF
:100258005E0D4A3E84000008C800840A0008C900F0
:1002680003105D0D7A216D2103105D0D4A3E840057
:1002780048088000840A49088000DD0A1029DE0A3F
:1002880007305E02031C0E29DB01DC014E08DB0788
:100298000318DC0A4F08DC075008DB070318DC0AE0
:1002A8005108DC075208DB070318DC0A5308DC078F
:1002B8005408DB070318DC0A5508DC070310DC0CBC
:1002C800DB0C0310DC0CDB0C5C08C3005B08C20011
:1002D8000800840A0008C50003105E0D4A3E840029
:1002E80044088000840A4508800008004A3E8400CB
:1002F8000008C4000800CA01CB01CC01CD014508A3
:100308004404430442040319BE29CE01CE0AC51B86
:1003180093290310C20DC30DC40DC50D8A290310FE
:10032800CA0DCB0DCC0DCD0D45084902031DA629DC
:1003380044084802031DA62943084702031DA629AD
:1003480042084602031CB8294208C6024308031C97
:10035800430FC7024408031C440FC8024508031C86
:10036800450FC9024A140310C50CC40CC30CC20CB7
:10037800CE0B93294D08C5004C08C4004B08C30098
:100388004A08C2000800450844044304420403190B
:10039800FC29CA01CA0AC51BD7290310C20DC30DFF
:1003A800C40DC50DCE2945084902031DE529440899
:1003B8004802031DE52943084702031DE5294208B1
:1003C8004602031CF6294208C6024308031C430FD1
:1003D800C7024408031C440FC8024508031C450F04
:1003E800C9020310C50CC40CC30CC20CCA0BD72914
:1003F8004908C5004808C4004708C3004608C200A9
:100408000800633084007C30552283133030840028
:1004180034305522A0010230A1007830A200A30197
:100428006630A4000130A5007730A6000330A7008D
:10043800D230A8000330A900D830AA00AB0104309C
:10044800AC000330AD00AE010230AF0083011A28C2
:10045800C601C701421C362A4408C6070318C70A42
:100468004508C7070310C40DC50D0310C30CC20C03
:1004780043084204031D2E2A4708C3004608C20049
:100488000800FF308500831285001030831686002F
:10049800D03083128600FF308316870083128700CE
:1004A800080064008001840A040603190034040665
:1004B800562A0F30831681006B2245220B1708003D
:1004C80041088A0040088300FE0E7E0E09000630AF
:0404D8009F00080079
:02400E00E13F90
:00000001FF
